:020000040800F2
:10000000000003206D160008451100085311000878
:10001000591100085F110008651100080000000078
:10002000000000000000000000000000511701085F
:100030006B1100080000000091190108F91901086E
:10004000BD160008BD160008BD160008BD16000844
:10005000BD160008BD160008BD160008BD16000834
:10006000BD160008BD160008BD160008BD16000824
:10007000BD160008BD160008BD160008BD16000814
:10008000BD160008BD160008BD160008BD16000804
:10009000BD160008BD160008BD160008BD160008F4
:1000A000BD160008BD160008BD160008BD160008E4
:1000B000BD160008BD160008BD160008BD160008D4
:1000C000BD160008BD160008BD160008BD160008C4
:1000D000BD160008BD160008BD160008BD160008B4
:1000E000BD160008BD160008BD160008BD160008A4
:1000F000BD160008BD160008BD160008BD16000894
:10010000BD160008BD160008BD160008BD16000883
:10011000BD160008791100088D110008BD160008F1
:10012000BD160008BD160008BD160008BD16000863
:10013000BD160008BD160008BD160008BD16000853
:10014000BD160008BD160008BD160008BD16000843
:10015000BD160008BD160008BD160008BD16000833
:10016000BD160008BD160008BD160008BD16000823
:10017000BD160008A1110008BD160008000000000F
:10018000BD160008BD160008BD160008BD16000803
:10019000BD160008BD160008BD160008BD160008F3
:0C01A000B5110008BD160008C9110008C8
:1001B00010B5054C237833B9044B13B10448AFF3A1
:1001C00000800123237010BDEC000020000000001F
:1001D0003807020808B5034B1BB103490348AFF3C6
:1001E000008008BD00000000F00000203807020871
:1001F000034613F8012B002AFBD1181A0138704767
:1002000001F0FF01102A2BDB10F0070F08D010F8C7
:10021000013B013A8B422DD010F0070F42B3F6D1CB
:10022000F0B441EA012141EA014122F007047FF0E4
:1002300000070023F0E80256083C85EA010586EA3B
:10024000010685FA47F5A3FA87F586FA47F6A5FA77
:1002500087F68EB9EED1F0BC01F0FF0102F0070283
:1002600032B110F8013B013A83EA010313B1F8D12E
:100270000020704701387047002D06BF354603380F
:10028000073815F0010F07D1013015F4807F02BF48
:10029000013015F4C03F0130F0BC0138704700BF99
:1002A00053B94AB9002908BF00281CBF4FF0FF31DD
:1002B0004FF0FF3000F072B9ADF1080C6DE904CEDB
:1002C00000F006F8DDF804E0DDE9022304B0704731
:1002D0002DE9F047089E04468846002B4BD18A4200
:1002E000154667D9B2FA82F24AB1C2F1200701FA83
:1002F00002F320FA07F7954047EA030894404FEAD3
:10030000154E230CB8FBFEF71FFA85FC0EFB178871
:1003100043EA084307FB0CF1994209D9EB1807F1AE
:10032000FF3080F01B81994240F21881023F2B443C
:100330005B1AA4B2B3FBFEF00EFB103344EA034495
:1003400000FB0CFCA44509D92C1900F1FF3380F007
:100350000781A44540F2048102382C4440EA07405A
:10036000A4EB0C0400271EB1D4400023C6E90043CF
:100370003946BDE8F0878B4209D9002E00F0EB80AA
:100380000027C6E9000138463946BDE8F087B3FAD0
:1003900083F7002F47D18B4202D3824200F2FA80CA
:1003A000841A61EB030301209846002EE0D0C6E9D1
:1003B0000048DDE702B9FFDEB2FA82F2002A40F01F
:1003C0008F80491B4FEA154E1FFA85F80127B1FBB4
:1003D000FEFC230C0EFB1C1143EA014308FB0CF14D
:1003E000994207D9EB180CF1FF3002D2994200F282
:1003F000CD808446591AA3B2B1FBFEF00EFB101457
:1004000043EA044408FB00F8A04507D92C1900F181
:10041000FF3302D2A04500F2B6801846A4EB0804D0
:1004200040EA0C409FE7C7F1200CBB4022FA0CFECB
:100430004EEA030E01FA07F420FA0CF521FA0CF348
:100440004FEA1E482543B3FBF8F92C0C08FB19337F
:100450001FFA8EFA44EA034309FB0AF49C4202FAAB
:1004600007F200FA07F10BD91EEB030309F1FF3085
:1004700080F087809C4240F28480A9F10209734495
:100480001B1BADB2B3FBF8F008FB103345EA034485
:1004900000FB0AFAA24508D91EEB040400F1FF3361
:1004A0006BD2A24569D90238744440EA0940A0FBE6
:1004B0000289A4EB0A044C45C2464B4654D351D0A2
:1004C000002E69D0B1EB0A0564EB030404FA0CFCBE
:1004D000FD40FC404CEA0505C6E90054002747E70B
:1004E000C2F1200320FA03F7954001FA02F021FA45
:1004F00003F34FEA154E3843010CB3FBFEF71FFA26
:1005000085F80EFB173341EA034107FB08F38B42E2
:1005100004FA02F407D9691807F1FF3C2FD28B4285
:100520002DD9023F2944CB1A81B2B3FBFEF00EFB5A
:10053000103341EA034100FB08F38B4207D96918E5
:1005400000F1FF3C17D28B4215D902382944C91A51
:1005500040EA07473BE73746304609E70746E7E604
:100560001846FBE64145ABD2B8EB020A69EB0E0236
:1005700001381346A4E76046E9E7184695E7674661
:10058000D1E781467CE702382C4447E7ACF1020C06
:100590002B442FE7384608E73746E9E6704700BFA7
:1005A00080B485B000AFF860B9607A60FB68074A34
:1005B0001A60BB68064A1A607B6880221A6000BF16
:1005C0001437BD465DF8047B704700BF080100206A
:1005D0006001002080B584B000AF78607B681B6844
:1005E0001E4A934236D11E4B1B78002B0DD100239F
:1005F000FB73FB7B632B08D8FB7B194A1344002257
:10060000DA70FB7B0133FB73F3E7154B5B780A2B46
:1006100012D0134B5B780D2B0ED0114B1B78194663
:100620000F4B5A780E4B0B44DA700D4B1B7801338D
:10063000DAB20B4B1A7008E0094B00221A70084B13
:10064000012283F8672000F0BBFE0122054906481D
:1006500007F05FFF00BF1037BD4680BD005000406F
:100660004404002045040020BC030020B0B58EB037
:1006700000AF02F011F800F047F800F09DF900F02B
:10068000D7F800F0EDF800F069F900F039F901222F
:100690001749184807F03DFF15F05EF915F0CEF93F
:1006A000154B07F11C041D460FCD0FC495E807003C
:1006B00084E8070007F11C03002118460EF0A9FE8C
:1006C00002460E4B1A600E4B3C461D460FCD0FC422
:1006D00095E8070084E807003B46002118460EF025
:1006E00098FE0246074B1A600EF08CFEFEE700BF34
:1006F00045040020BC0300205C0702083C040020E5
:10070000840702084004002080B5A0B000AF07F1C4
:1007100050033022002118461FF091F807F13C03E6
:1007200000221A605A609A60DA601A6107F10C03BD
:100730003022002118461FF082F80023BB603A4B9C
:100740001B6C394A43F080531364374B1B6C03F026
:100750008053BB60BB6800237B60344B1B6823F471
:100760004043324A43F480431360304B1B6803F428
:1007700040437B607B6801233B654FF480337B659E
:100780000223BB664FF48003FB6604233B674823C8
:100790007B670223BB670323FB6707F150031846FF
:1007A00006F0E4F80346002B14BF01230023DBB25C
:1007B000002B01D000F056FA0F23FB6302233B64A9
:1007C00000237B644FF48053BB640023FB6407F178
:1007D0003C030221184606F00BFB0346002B14BF16
:1007E00001230023DBB2002B01D000F03BFA0823E9
:1007F000FB603C23FB6105237B624FF480333B634A
:1008000007F10C03184606F013FD0346002B14BF36
:1008100001230023DBB2002B01D000F023FA00BF3C
:100820008037BD4680BD00BF0038024000700040E8
:1008300080B500AF084B094A1A60074802F0A2F8D9
:100840000346002B14BF01230023DBB2002B01D091
:1008500000F008FA00BF80BD6003002000300240B5
:1008600080B500AF234B244A1A60224B234A5A60BA
:10087000204B00229A601F4B0022DA601D4B4FF480
:1008800080421A611B4B00225A611A4B00229A6166
:10089000184B0022DA61174B00221A62154804F047
:1008A000F9FB0346002B14BF01230023DBB2002B0E
:1008B00001D000F0D7F900210E4805F0A8FB03464F
:1008C000002B14BF01230023DBB2002B01D000F06A
:1008D000C9F90021074805F0D6FB0346002B14BFD9
:1008E00001230023DBB2002B01D000F0BBF900BFD5
:1008F00080BD00BF68030020005C0040A0860100AE
:1009000080B500AF134B144A1A60124B4FF41652C5
:100910005A60104B00229A600E4B0022DA600D4B99
:1009200000221A610B4B0C225A610A4B00229A6179
:10093000084B0022DA61074807F005FD0346002B4B
:1009400014BF01230023DBB2002B01D000F08AF991
:1009500000BF80BDBC0300200050004080B500AF48
:10096000134B144A1A60124B4FF4E1325A60104B89
:1009700000229A600E4B0022DA600D4B00221A61B1
:100980000B4B0C225A610A4B00229A61084B002241
:10099000DA61074807F0D7FC0346002B14BF012398
:1009A0000023DBB2002B01D000F05CF900BF80BD5A
:1009B000FC0300200010014080B58EB000AF07F1AD
:1009C000240300221A605A609A60DA601A610023D8
:1009D0003B627D4B1B6B7C4A43F0040313637A4BF1
:1009E0001B6B03F004033B623B6A0023FB61764B05
:1009F0001B6B754A43F020031363734B1B6B03F0AF
:100A00002003FB61FB690023BB616F4B1B6B6E4ACC
:100A100043F0800313636C4B1B6B03F08003BB61DB
:100A2000BB6900237B61684B1B6B674A43F0010382
:100A30001363654B1B6B03F001037B617B69002330
:100A40003B61614B1B6B604A43F0020313635E4BD7
:100A50001B6B03F002033B613B690023FB605A4BB5
:100A60001B6B594A43F040031363574B1B6B03F056
:100A70004003FB60FB680023BB60534B1B6B524A77
:100A800043F010031363504B1B6B03F01003BB6068
:100A9000BB6800237B604C4B1B6B4B4A43F0080345
:100AA0001363494B1B6B03F008037B607B680022D8
:100AB0001621464802F052FE00228021444802F0EE
:100AC0004DFE00224FF44051424802F047FE002202
:100AD0004FF40051404802F041FE01224FF48041A2
:100AE0003D4802F03BFE16237B620123BB620023DC
:100AF000FB6200233B6307F124031946334802F0ED
:100B000079FB48F207037B62344BBB620023FB6234
:100B100007F1240319462E4802F06CFB80237B6208
:100B20000123BB620023FB6200233B6307F1240324
:100B30001946274802F05EFB20237B62274BBB62ED
:100B40000023FB6207F124031946204802F052FB00
:100B500004237B620023BB620023FB6207F12403B2
:100B600019461F4802F046FB4FF400637B620023E6
:100B7000BB620023FB6207F124031946154802F00B
:100B800039FB4FF440537B620123BB620023FB62BD
:100B900000233B6307F1240319460E4802F02AFBA9
:100BA0004FF4C0437B620123BB620023FB6200233E
:100BB0003B6307F124031946074802F01BFB00BF03
:100BC0003837BD4680BD00BF0038024000080240F3
:100BD00000000240000C0240001802400000121009
:100BE0000004024080B582B000AF78604FF400513D
:100BF0000A4802F0CCFD0A4B18680023002209497C
:100C00000EF02EFF074B1B680133064A13604FF4AA
:100C1000FA700EF04AFC00F0D3FBE7E70018024040
:100C200080870020B004002080B582B000AF7860DB
:100C300016F0C0FD14F008FF01200EF036FCFBE7B3
:100C400080B582B000AF78607B681B68044A93422D
:100C500001D101F043FD00BF0837BD4680BD00BF94
:100C60000010004080B400AF00BFBD465DF8047BBB
:100C70007047000080B582B000AF00237B60124B4C
:100C80005B6C114A43F4804353640F4B5B6C03F479
:100C900080437B607B6800233B600B4B1B6C0A4AE4
:100CA00043F080531364084B1B6C03F080533B608C
:100CB0003B6800220F216FF0010001F02BFE00BF06
:100CC0000837BD4680BD00BF0038024080B485B003
:100CD00000AF78607B681B680B4A93420DD10023FC
:100CE000FB600A4B1B6B094A43F480531363074BA9
:100CF0001B6B03F48053FB60FB6800BF1437BD46D9
:100D00005DF8047B704700BF0030024000380240AD
:100D100080B58AB000AF786007F1140300221A6032
:100D20005A609A60DA601A617B681B68294A9342AC
:100D30004BD100233B61284B1B6B274A43F0040334
:100D40001363254B1B6B03F004033B613B690023DA
:100D5000FB60214B1B6B204A43F0010313631E4BC6
:100D60001B6B03F00103FB60FB684FF400737B61B6
:100D70001223BB610123FB6100233B6204237B62DE
:100D800007F114031946154802F034FA4FF4807342
:100D90007B611223BB610123FB6100233B620423BF
:100DA0007B6207F1140319460D4802F023FA002371
:100DB000BB60094B1B6C084A43F400031364064BE9
:100DC0001B6C03F40003BB60BB6800BF2837BD4643
:100DD00080BD00BF005C00400038024000080240B7
:100DE0000000024080B582B000AF78607B681B686D
:100DF0000B4A93420FD10B4B1B6C0A4A23F400039E
:100E000013644FF40071084802F09EFB4FF48071A8
:100E1000064802F099FB00BF0837BD4680BD00BF01
:100E2000005C004000380240000802400000024020
:100E300080B58AB000AF786007F1140300221A6011
:100E40005A609A60DA601A617B681B68194A93429B
:100E50002CD100233B61184B5B6C174A43F4801381
:100E60005364154B5B6C03F480133B613B690023B7
:100E7000FB60114B1B6B104A43F0200313630E4BB6
:100E80001B6B03F02003FB60FB684FF460737B6116
:100E90000223BB610023FB6100233B6205237B62CD
:100EA00007F114031946054802F0A4F900BF2837DA
:100EB000BD4680BD00500140003802400014024091
:100EC00080B582B000AF78607B681B68084A9342A7
:100ED0000AD1084B5B6C074A23F4801353644FF428
:100EE0006071054802F030FB00BF0837BD4680BD89
:100EF00000500140003802400014024080B485B028
:100F000000AF78607B681B680B4A93420DD10023C9
:100F1000FB600A4B5B6C094A43F001035364074BC7
:100F20005B6C03F00103FB60FB6800BF1437BD4638
:100F30005DF8047B704700BF0000014000380240AC
:100F400080B58CB000AF786007F11C0300221A60F6
:100F50005A609A60DA601A617B681B68464A93425D
:100F600053D10023BB61454B1B6C444A43F48013AF
:100F70001364424B1B6C03F48013BB61BB690023F9
:100F80007B613E4B1B6B3D4A43F0040313633B4BB9
:100F90001B6B03F004037B617B6900233B61374BD0
:100FA0001B6B364A43F008031363344B1B6B03F08F
:100FB00008033B613B694FF48053FB6102233B62B2
:100FC00001237B620323BB620823FB6207F11C033E
:100FD00019462B4802F00EF90423FB6102233B6201
:100FE00001237B620323BB620823FB6207F11C031E
:100FF0001946244802F0FEF800220521352001F0B0
:1010000089FC352001F0A2FC31E07B681B681E4A98
:1010100093422CD10023FB60184B5B6C174A43F0C2
:1010200010035364154B5B6C03F01003FB60FB680B
:101030000023BB60114B1B6B104A43F00103136389
:101040000E4B1B6B03F00103BB60BB684FF4C06326
:10105000FB6102233B6201237B620323BB62072304
:10106000FB6207F11C031946084802F0C3F800BFF1
:101070003037BD4680BD00BF005000400038024000
:1010800000080240000C0240001001400000024035
:1010900080B58CB000AF78600023FB620023BB6298
:1010A00000227968362001F035FC362001F04EFC34
:1010B0000023FB601F4B1B6C1E4A43F0100313649C
:1010C0001C4B1B6C03F01003FB60FB6807F1100264
:1010D00007F114031146184606F078F806F04EF8AA
:1010E00003465B00FB62FB6A134AA2FB03239B0CD3
:1010F000013BBB62114B124A1A60104B40F2E732BF
:10110000DA600E4ABB6A53600C4B00221A610B4B2B
:1011100000229A60094806F029FD0346002B04D1FD
:10112000064806F072FD034600E0012318463037FA
:10113000BD4680BD0038024083DE1B43F89B002083
:101140000010004080B400AF00BFBD465DF8047BD6
:10115000704780B400AFFEE780B400AFFEE780B414
:1011600000AFFEE780B400AFFEE780B400AF00BF81
:10117000BD465DF8047B704780B500AF024807F0BC
:101180001DFA00BF80BD00BFBC03002080B500AFCA
:10119000024806F05EFD00BF80BD00BFF89B002046
:1011A00080B500AF024802F093FD00BF80BD00BFD4
:1011B00068A0002080B500AF024805F08BF800BFA2
:1011C00080BD00BF3899002080B500AF024801F013
:1011D000D2FD00BF80BD00BFE099002080B400AF09
:1011E00001231846BD465DF8047B704780B582B088
:1011F00000AF786039601EF0CBFA02461623136008
:101200004FF0FF3318460837BD4680BD80B582B029
:1012100000AF78604FF0FF317868FFF7E7FFFEE737
:1012200080B586B000AFF860B9607A6000237B615A
:101230000AE0AFF300800146BB685A1CBA60CAB22C
:101240001A707B6901337B617A697B689A42F0DBB3
:101250007B6818461837BD4680BD80B586B000AFA4
:10126000F860B9607A6000237B6109E0BB685A1CB2
:10127000BA601B781846AFF300807B6901337B614D
:101280007A697B689A42F1DB7B6818461837BD465D
:1012900080BD80B483B000AF78604FF0FF33184654
:1012A0000C37BD465DF8047B704780B483B000AF57
:1012B000786039603B684FF400525A60002318464A
:1012C0000C37BD465DF8047B704780B483B000AF37
:1012D0007860012318460C37BD465DF8047B7047E3
:1012E00080B485B000AFF860B9607A60002318461A
:1012F0001437BD465DF8047B7047000080B584B0AC
:1013000000AF7860114B1B68002B02D10F4B104AC5
:101310001A600E4B1B68FB600C4B1A687B68134409
:101320006A46934207D91EF033FA02460C23136033
:101330004FF0FF3306E0054B1A687B681344034AFD
:101340001360FB6818461037BD4680BDB40400200A
:1013500030A3002080B400AF164BD3F88830154A74
:1013600043F47003C2F88830134B1B68124A43F0F1
:1013700001031360104B00229A600F4B1B680E4A4A
:1013800023F0847323F4803313600B4B0B4A5A60B1
:10139000094B1B68084A23F480231360064B002284
:1013A000DA60044B4FF000629A6000BFBD465DF802
:1013B000047B704700ED00E000380240103000244C
:1013C00080B500AF734B93F86730002B00F0DF80DF
:1013D000704BDB78662B2ED16E4B1B79722B2AD18A
:1013E0006C4B5B79652B26D16A4B9B79712B22D193
:1013F000684B002283F86820664B1B7A1A469200DD
:1014000013441A4691001A460B4613449B00DAB265
:10141000604B5B7A194689000B445B00DBB21344D6
:10142000DAB25C4B9B7A1344DBB23033DAB2594BFD
:1014300083F86920A0E0574BDB78642B2ED1554B05
:101440001B79752B2AD1534B5B79742B26D1514BC9
:101450009B79792B22D14F4B012283F868204D4B89
:101460001B7A1A46920013441A4691001A460B46FC
:1014700013449B00DAB2474B5B7A194689000B4450
:101480005B00DBB21344DAB2424B9B7A1344DBB20B
:101490003033DAB23F4B83F869206DE03D4BDB78A7
:1014A000702B32D13B4B1B796F2B2ED1394B5B7993
:1014B000772B2AD1374B9B79652B26D1354BDB799E
:1014C000722B22D1334B032283F86820314B5B7A95
:1014D0001A46920013441A4691001A460B461344CA
:1014E0009B00DAB22B4B9B7A194689000B445B00B8
:1014F000DBB21344DAB2274BDB7A1344DBB230336E
:10150000DAB2244B83F8692036E0224BDB786C2B6F
:101510002AD1204B1B79752B26D11E4B5B796D2B65
:1015200022D11C4B022283F868201A4BDB791A4621
:10153000920013441A4691001A460B4613449B002E
:10154000DAB2144B1B7A194689000B445B00DBB2FC
:101550001344DAB20F4B5B7A1344DBB23033DAB2A6
:101560000C4B83F8692007E00A4B052283F86820BA
:10157000084B002283F8692000F010F84FF48041F6
:10158000054802F004F9034B002283F8672000BFEE
:1015900080BD00BF4404002000180240B0B59AB0DE
:1015A00000AF002387F867302B4B93F86830012B8E
:1015B0001CD0032B32D0002B00D048E03B46274AFA
:1015C0001C4613460FCB84E80F003B461846FEF737
:1015D0000FFE034687F8663097F866309AB23946B0
:1015E0004FF47A731E4806F0FBFE30E03B461D4A7E
:1015F0001C4613460FCB84E80F003B461846FEF707
:10160000F7FD034687F8663097F866309AB2394698
:101610004FF47A73124806F0E3FE18E03B46124A94
:101620001C4615460FCD0FC42B6823703B46184649
:10163000FEF7DEFD034687F8663097F866309AB20B
:1016400039464FF47A73064806F0CAFE00BF00BF61
:101650006837BD46B0BD00BF44040020A0070208A3
:10166000BC030020B0070208C0070208DFF834D02E
:10167000002103E00C4B5B58435004310B480C4BEA
:1016800042189A42F6D30B4A02E0002342F8043B88
:10169000094B9A42F9D3FFF75DFE1EF091F8FEF771
:1016A000E5FF7047000003203CEA0C080000002022
:1016B000EC000020EC00002030A30020FEE780B505
:1016C00000AF00F0EDFDCA2000F043F9C32000F0A8
:1016D0004DF9082000F04AF9502000F047F9CF20DA
:1016E00000F037F9002000F041F9C12000F03EF988
:1016F000302000F03BF9ED2000F02BF9642000F0E1
:1017000035F9032000F032F9122000F02FF9812082
:1017100000F02CF9E82000F01CF9852000F026F9F3
:10172000002000F023F9782000F020F9CB2000F011
:1017300010F9392000F01AF92C2000F017F90020D8
:1017400000F014F9342000F011F9022000F00EF935
:10175000F72000F0FEF8202000F008F9EA2000F061
:10176000F8F8002000F002F9002000F0FFF8B120A6
:1017700000F0EFF8002000F0F9F81B2000F0F6F878
:10178000B62000F0E6F80A2000F0F0F8A22000F001
:10179000EDF8C02000F0DDF8102000F0E7F8C120DF
:1017A00000F0D7F8102000F0E1F8C52000F0D1F8E3
:1017B000452000F0DBF8152000F0D8F8C72000F035
:1017C000C8F8902000F0D2F8362000F0C2F8C82007
:1017D00000F0CCF8F22000F0BCF8002000F0C6F8D1
:1017E000B02000F0B6F8C22000F0C0F8B62000F03B
:1017F000B0F80A2000F0BAF8A72000F0B7F82720C8
:1018000000F0B4F8042000F0B1F82A2000F0A1F8AC
:10181000002000F0ABF8002000F0A8F8002000F055
:10182000A5F8EF2000F0A2F82B2000F092F800209D
:1018300000F09CF8002000F099F8012000F096F8E4
:101840003F2000F093F8F62000F083F8012000F02C
:101850008DF8002000F08AF8062000F087F82C2090
:1018600000F077F8C82014F05BF8262000F071F83B
:10187000012000F07BF8E02000F06BF80F2000F072
:1018800075F8292000F072F8242000F06FF80C2081
:1018900000F06CF80E2000F069F8092000F066F8FE
:1018A0004E2000F063F8782000F060F83C2000F053
:1018B0005DF8092000F05AF8132000F057F80520D1
:1018C00000F054F8172000F051F8112000F04EF805
:1018D000002000F04BF8E12000F03BF8002000F081
:1018E00045F8162000F042F81B2000F03FF80420D5
:1018F00000F03CF8112000F039F8072000F036F82D
:10190000312000F033F8332000F030F8422000F0AE
:101910002DF8052000F02AF80C2000F027F80A2006
:1019200000F024F8282000F021F82F2000F01EF805
:101930000F2000F01BF8112000F00BF8C82013F066
:10194000EFFF292000F005F82C2000F002F800BF7E
:1019500080BD80B582B000AF0346FB71FB791846AD
:1019600000F038FD00BF0837BD4680BD80B582B0AD
:1019700000AF0346FB80FB88184600F009FD00BF5E
:101980000837BD4680BD000080B584B000AF034677
:10199000FB80FB88184600F059FA0346FB73FB7B7B
:1019A000FF2B12D1002000F051FA0346BB73BB7B22
:1019B000012B0AD8BB7BFA88D1B2064AD15400F079
:1019C0002BFDFB88184600F007F800BF1037BD4616
:1019D00080BD00BFB804002080B582B000AF0346D0
:1019E000FB80FB88DBB202220321184600F020FDB9
:1019F0000A2000F05AFDFB88DBB2002203211846C2
:101A000000F016FD022000F050FD00BF0837BD4673
:101A100080BD90B583B000AF0346FB8000F0FCFCB6
:101A2000FB88DBB20021184600F015FD03461B02BF
:101A30001CB2FB88DBB20121184600F00CFD034606
:101A40001BB223431BB29BB218460C37BD4690BD58
:101A500080B584B000AF0346FB800023FB73FB8896
:101A6000DBB20921184600F0F6FC0346FB73FB7B52
:101A700043F00103FB73FB88DBB2FA7B09211846B4
:101A800000F0D6FC00BF1037BD4680BD80B584B0E5
:101A900000AF0346FB800023FB73FB88DBB2092108
:101AA000184600F0D8FC0346FB73FB7B23F00103D0
:101AB000FB73FB88DBB2FA7B0921184600F0B8FC07
:101AC00000BF1037BD4680BD80B584B000AF03466F
:101AD0000A46FB8013467B710023FB73FB88DBB255
:101AE0000A21184600F0B7FC0346FB73FA7B7B79AA
:101AF0001343FB73FB88DBB2FA7B0A21184600F024
:101B000097FC00BF1037BD4680BD80B584B000AFE4
:101B100003460A46FB8013467B710023FB73FB8858
:101B2000DBB20A21184600F096FC0346FB7397F9D6
:101B30000530DB435AB297F90F3013405BB2FB73A9
:101B4000FB88DBB2FA7B0A21184600F071FC00BF6B
:101B50001037BD4680BD80B582B000AF03460A464F
:101B6000FB8013467B71FB88DBB20B21184600F02B
:101B700072FC03461A467B791340DBB218460837DD
:101B8000BD4680BD80B582B000AF03460A46FB80EB
:101B900013467B71FB88DBB27A790B21184600F083
:101BA00047FC00BF0837BD4680BD80B584B000AF9C
:101BB00003463960FB800023FB73FB88DBB21721EF
:101BC000184600F048FC0346FB733B685BB2DB43FE
:101BD0005AB297F90F3013405BB2FB73FB88DBB24C
:101BE000FA7B1721184600F023FC00BF1037BD46D2
:101BF00080BD80B584B000AF0346FB80FB88DBB2BC
:101C00000421184600F027FC0346FB73FB7B23F0FE
:101C10000403FB73FB88DBB2FA7B0421184600F057
:101C200007FCFB88F0211846FFF7BFFFFB7B23F082
:101C30000303FB73FB88DBB2FA7B0421184600F038
:101C4000F7FBFB88DBB249222021184600F0F0FBAD
:101C5000022000F02AFCFB88DBB201222121184679
:101C600000F0E6FBFB88DBB29A224121184600F027
:101C7000DFFBFB88DBB201224A21184600F0D8FBCB
:101C8000FB88DBB201224B21184600F0D1FBFB8818
:101C9000DBB200224B21184600F0CAFBFB88DBB206
:101CA00001225621184600F0C3FBFB88DBB201225B
:101CB0005821184600F0BCFBFB88DBB20122402112
:101CC000184600F0B5FBFB88DBB2FF220B2118465B
:101CD00000F0AEFB022000F0E8FB00BF1037BD466D
:101CE00080BD80B584B000AF0346FB800023FB734A
:101CF000FB88DBB24021184600F0ADFB034603F041
:101D00008003802B0CBF01230023DBB2BB73BB7BA2
:101D1000002B0BD0FB88DBB24C21184600F09BFB5C
:101D20000346002B10D00123FB730DE0FB88DBB2D0
:101D300001224B21184600F07BFBFB88DBB200221E
:101D40004B21184600F074FBFB7B18461037BD464C
:101D500080BD80B586B000AF0346B9607A60FB8174
:101D6000FB89D8B207F110020423D72100F086FBCB
:101D70003B7C1A067B7C1B041A43BB7C1B0213436F
:101D8000FA7C13437B617B691B0D9AB2BB681A8096
:101D90007B691B0A9BB2C3F30B039AB27B681A8060
:101DA000FB89DBB201224B21184600F041FBFB8985
:101DB000DBB200224B21184600F03AFB00BF183777
:101DC000BD4680BD80B582B000AF0346FB8000F009
:101DD00029FBFB881F211846FFF776FEFB88184673
:101DE000FFF736FE00BF0837BD4680BD80B582B024
:101DF00000AF0346FB80FB881846FFF747FEFB88D1
:101E00001F211846FFF781FE00BF0837BD4680BD81
:101E100080B582B000AF0346FB80FB881F211846C7
:101E2000FFF799FE034618460837BD4680BD80B5CA
:101E300082B000AF0346FB80FB881F211846FFF7E6
:101E4000A1FE00BF0837BD4680BD000080B485B04C
:101E500000AF0346FB800023FB730023FB730BE002
:101E6000FB7B0A4AD35C9BB2FA889A4201D1FB7B86
:101E700006E0FB7B0133FB73FB7B012BF0D9FF23D7
:101E800018461437BD465DF8047B7047B80400203F
:101E900080B58AB000AF78607B681B68334A934294
:101EA0005FD100233B61324B1B6B314A43F004038B
:101EB00013632F4B1B6B03F004033B613B6900234F
:101EC000FB602B4B1B6B2A4A43F001031363284B27
:101ED0001B6B03F00103FB60FB684FF480737B61B5
:101EE0001223BB610023FB6102233B6204237B625C
:101EF00007F1140319461F4801F07CF94FF40073F1
:101F00007B6107F1140319461B4801F073F90023A4
:101F1000BB60174B1B6C164A43F400031364144B4D
:101F20001B6C03F40003BB60BB68114B1B6A104AB7
:101F300043F4000313620E4B1B6A0D4A23F40003A3
:101F4000136200220F21482000F0E4FC482000F03A
:101F5000FDFC00220F21492000F0DCFC492000F0AC
:101F6000F5FC00BF2837BD4680BD00BF005C0040C7
:101F700000380240000002400008024080B500AF77
:101F8000144803F0FFFC0346002B21D1114B124AE9
:101F90001A60104B114A5A600E4B00229A600D4B8A
:101FA0000022DA600B4B4FF480421A61094B002289
:101FB0005A61084B00229A61064B0022DA61054BF8
:101FC00000221A620348FFF763FF024803F062F839
:101FD00000BF80BD389C0020005C0040A08601004E
:101FE00080B586B000AF00233B60134B1B6B124AD9
:101FF00043F001031363104B1B6B03F001033B60C1
:102000003B684FF400437B600123FB6000233B618E
:102010000A4BBB603B1D1946094801F0EBF8002252
:102020000F21282000F076FC282000F08FFC00BF54
:102030001837BD4680BD00BF0038024000002110A7
:102040000000024080B588B004AF0346FB710B4628
:10205000BB7113467B710023FB73FB7999B2BB798B
:102060009AB20B4B1B680293012301937B1D0093D3
:102070000123084803F066F90346FB73FB7B002B42
:1020800001D000F063F800BF1037BD4680BD00BF2F
:102090002C000020389C002080B588B004AF034697
:1020A0000A46FB711346BB710023FB730023BB730D
:1020B000FB7999B2BB799AB20B4B1B68029301234F
:1020C000019307F10E0300930123084803F034FA4B
:1020D0000346FB73FB7B002B01D000F037F8BB7B82
:1020E00018461037BD4680BD2C000020389C0020CB
:1020F00080B588B004AF3A601A460346FB710B46C0
:10210000BB711346BB800023FB73FB7999B2BB798B
:102110009AB20C4B1B680293BB8801933B680093F7
:102120000123094803F008FA0346FB73FB7B002BED
:1021300001D1002302E000F009F80123184610370E
:10214000BD4680BD2C000020389C002080B500AF2B
:10215000034803F0C7F8FFF711FF00BF80BD00BFC1
:10216000389C002080B500AF194805F044FC0346B8
:10217000002B2BD1164B174A1A60154B1822DA6127
:10218000134B00229A60124B00225A61104B00221E
:102190001A610F4B00229A620D4B0722DA620C4B38
:1021A0000022DA600A4B00221A62094B4FF40072D7
:1021B0009A61074B00225A62054B4FF482725A60B3
:1021C000034800F033F8024805F055FA00BF80BD1F
:1021D000BC0400200050014080B584B000AF03462D
:1021E000FB800023FB73094B1B68B91D01220848C3
:1021F00005F0CDFA0346FB73FB7B002B01D000F00A
:1022000009F800BF1037BD4680BD00BF3000002078
:10221000BC04002080B500AF034805F090FAFFF73A
:10222000A1FF00BF80BD00BFBC04002080B58AB004
:1022300000AF786000233B61174B5B6C164A43F498
:1022400080135364144B5B6C03F480133B613B6954
:102250000023FB60104B1B6B0F4A43F020031363FA
:102260000D4B1B6B03F02003FB60FB684FF46073A6
:102270007B610223BB610223FB6101233B620523D7
:102280007B6207F114031946044800F0B3FF00BF56
:102290002837BD4680BD00BF003802400014024010
:1022A00080B588B000AF364B1B78002B64D1344B1F
:1022B00001221A700023BB60324B1B6B314A43F082
:1022C000080313632F4B1B6B03F00803BB60BB6851
:1022D0004FF40053FB6001233B6100237B61022329
:1022E000BB6107F10C031946274800F083FF002368
:1022F0007B60244B1B6B234A43F008031363214B81
:102300001B6B03F008037B607B684FF48053FB601A
:1023100001233B6100237B610223BB6107F10C03B6
:102320001946194800F066FF00233B60154B1B6BF4
:10233000144A43F004031363124B1B6B03F00403B2
:102340003B603B680423FB6001233B6100237B610E
:102350000223BB6107F10C0319460C4800F04AFF49
:1023600000220421094801F0F9F90122042107485B
:1023700001F0F4F9FFF7F6FE00BF2037BD4680BD3F
:102380001405002000380240000C02400008024002
:1023900080B582B000AF0346FB8001224FF40051AC
:1023A0000A4801F0DBF900220421094801F0D6F9BE
:1023B000FB881846FFF710FF01220421044801F0B2
:1023C000CDF900BF0837BD4680BD00BF000C0240FC
:1023D0000008024080B582B000AF0346FB710022C6
:1023E0004FF400510A4801F0B9F9002204210948CC
:1023F00001F0B4F9FB799BB21846FFF7EDFE01221C
:102400000421044801F0AAF900BF0837BD4680BD89
:10241000000C02400008024080B500AFFFF7AEFD9F
:1024200000BF80BD80B500AFFFF7DAFD00BF80BD03
:1024300080B582B000AF0346FB710B46BB711346FB
:102440007B717A79B979FB791846FFF7FBFD00BFFC
:102450000837BD4680BD80B582B000AF03460A464E
:10246000FB711346BB71BA79FB7911461846FFF729
:1024700013FE034618460837BD4680BD80B582B0BE
:1024800000AF3A601A460346FB710B46BB71134618
:10249000BB80BB88B979F8793A68FFF729FE034613
:1024A0009BB218460837BD4680BD80B582B000AFEC
:1024B000786078680CF0F9FF00BF0837BD4680BD32
:1024C00080B584B000AF03460A46FB801346BB804C
:1024D0000123FB73134AFB881380134ABB881380C4
:1024E000124B5B688220984703461A4640F6110358
:1024F0009A4204D10E4B0D4A1A600023FB73FB7BFA
:10250000002B09D10A4B1B681B6882209847084B97
:102510001B68DB6882209847FB7B18461037BD4656
:1025200080BD00BF1C0500201E0500200400002007
:102530001805002080B586B000AF78604F4B1B684F
:102540001B698220984703469AB27B681A807B6891
:102550001B88002B00F08D80484B1B685B6907F1DE
:102560000C0207F10E0182209847BB89A3F5B473D2
:102570009BB2BB81BB89424AA2FB0323DB08BB821F
:10258000BB8A002B02D10023BB8208E03D4B1B8895
:10259000BA8A9A4203D93B4B1B88013BBB82BB8A58
:1025A000BB81FB8940F6B832934206D8FB89C3F55C
:1025B00071630E339BB2FB8105E0FB89C3F56D634C
:1025C00008339BB2FB81FB892F4AA2FB0323DB0864
:1025D000FB82FB8A002B02D10023FB8208E02B4BFD
:1025E0001B88FA8A9A4203D9284B1B88013BFB823D
:1025F000FB8AFB81FB891A46254B1B689A4206D948
:10260000FA89234B1B689BB2D31A9BB205E0204B7F
:102610001B689AB2FB89D31A9BB27B82BB891A468C
:102620001C4B1B689A4206D9BA891A4B1B689BB28D
:10263000D31A9BB205E0174B1B689AB2BB89D31A19
:102640009BB23B827A8A3B8A1344052B07DDFB89C8
:102650001A460F4B1A60BB891A460E4B1A600C4B78
:102660001B689AB27B685A800A4B1B689AB27B68D7
:102670009A8000BF1837BD4680BD00BF18050020F6
:10268000A38B2EBA1E050020898888881C0500208F
:10269000200500202405002080B500AF0E4B1B68EC
:1026A0000D4A43F4007313600B4B1B680A4A43F452
:1026B00080631360084B1B68074A43F48073136000
:1026C000032000F01CF90020FEF7E2FCFEF7D2FA2E
:1026D0000023184680BD00BF003C024080B400AF1C
:1026E000064B1B781A46064B1B681344044A1360BA
:1026F00000BFBD465DF8047B704700BF340000207A
:102700008C9C002080B400AF034B1B681846BD466C
:102710005DF8047B704700BF8C9C002080B584B0BE
:1027200000AF7860FFF7EEFFB8607B68FB60FB6886
:10273000B3F1FF3F05D0094B1B781A46FB681344E1
:10274000FB6000BFFFF7DEFF0246BB68D31AFA68E2
:102750009A42F7D800BF1037BD4680BD3400002034
:1027600080B485B000AF78607B6803F00703FB603E
:102770000C4BDB68BB60BA684FF6FF031340BB60CD
:10278000FB681A02BB68134343F0BF6343F4003392
:10279000BB60044ABB68D36000BF1437BD465DF818
:1027A000047B704700ED00E080B400AF044BDB68B1
:1027B0001B0A03F007031846BD465DF8047B70470B
:1027C00000ED00E080B483B000AF0346FB7197F9E1
:1027D0000730002B0BDBFB7903F01F02074997F949
:1027E00007305B09012000FA02F241F8232000BF04
:1027F0000C37BD465DF8047B704700BF00E100E088
:1028000080B483B000AF0346FB7197F90730002B0B
:1028100010DBFB7903F01F02094997F907305B09C8
:10282000012000FA02F2203341F82320BFF34F8F3A
:10283000BFF36F8F00BF0C37BD465DF8047B704758
:1028400000E100E080B483B000AF03463960FB7163
:1028500097F90730002B0ADB3B68DAB20C4997F98D
:1028600007301201D2B20B4483F800230AE03B6820
:10287000DAB20849FB7903F00F03043B1201D2B22C
:102880000B441A7600BF0C37BD465DF8047B7047D9
:1028900000E100E000ED00E080B489B000AFF86036
:1028A000B9607A60FB6803F00703FB61FB69C3F161
:1028B0000703042B28BF0423BB61FB690433062BE9
:1028C00002D9FB69033B00E000237B614FF0FF323C
:1028D000BB6902FA03F3DA43BB681A407B699A408A
:1028E0004FF0FF317B6901FA03F3D9437B680B405A
:1028F000134318462437BD465DF8047B704780B506
:1029000082B000AF78607868FFF72AFF00BF083711
:10291000BD4680BD80B586B000AF0346B9607A6021
:10292000FB7300237B61FFF73FFF78617A68B9682A
:102930007869FFF7B1FF024697F90F301146184644
:10294000FFF780FF00BF1837BD4680BD80B582B05D
:1029500000AF0346FB7197F907301846FFF732FFC7
:1029600000BF0837BD4680BD80B582B000AF0346CA
:10297000FB7197F907301846FFF742FF00BF083791
:10298000BD4680BD80B582B000AF78607B68002B0B
:1029900001D1012311E07B685B79DBB2002B05D10B
:1029A0007B6800221A717868FEF790F97B68022232
:1029B0005A717B6801225A71002318460837BD46B8
:1029C00080BD80B483B000AF78607B6893F8353009
:1029D000DBB2022B04D07B6880225A6501230CE015
:1029E0007B68052283F835207B681B681A687B6842
:1029F0001B6822F001021A60002318460C37BD46FE
:102A00005DF8047B704780B582B000AF78607B686A
:102A1000002B01D101233BE07B6893F83930DBB216
:102A2000002B06D17B68002283F83820786813F0E9
:102A3000FFFD7B68022283F839207B681B681B68D6
:102A400023F440317B685A687B681B680A431A602C
:102A50007B681B685B6B23F007017B689A687B6867
:102A60001B680A435A637B681B681B6C23F47F5303
:102A700023F03F037A68D1687A6812680B431364C5
:102A80007B680022DA637B68012283F83920002307
:102A900018460837BD4680BD80B582B000AF78606B
:102AA0007B68002B01D101235FE0324B1B6B03F4E9
:102AB0000003002B2ED07B681B681B6803F001030A
:102AC000012B07D1786800F0C1F80346002B21D014
:102AD00001234AE07B681B685B6A03F02003202B1C
:102AE00008D10021786800F0F7F80346002B11D0D8
:102AF00001233AE07B681B68DB6903F02003202B8D
:102B000008D10121786800F0E7F80346002B01D0D6
:102B100001232AE07B681B6800221A607B681B681F
:102B20003F229A607B681B6800221A617B681B68E1
:102B300000229A617B681B680022DA617B681B684F
:102B400000225A627B681B6800225A63786813F07F
:102B500097FD7B680022DA637B68002283F83920C6
:102B60007B68002283F83820002318460837BD46CA
:102B700080BD00BF0038024080B586B002AFF8606B
:102B8000B9607A603B60FB6893F83830012B01D163
:102B9000022320E0FB68012283F83820FB68022230
:102BA00083F83920BB6900933B687A68B968F86894
:102BB00000F084FAFB681B681A68FB681B6842F423
:102BC0000C521A60FB681B681A68FB681B6842F0AD
:102BD00001021A60002318461037BD4680BD80B53B
:102BE00086B002AFF860B9607A603B60FB6893F82A
:102BF0003830012B01D1022324E0FB68012283F845
:102C00003820FB68022283F83920FB681B687A6849
:102C10005A61FB690093BB693A68B968F86800F0CB
:102C20004DFAFB681B681A68FB681B6842F40C527B
:102C30001A60FB681B681A68FB681B6842F0010297
:102C40001A60002318461037BD4680BD80B584B099
:102C500000AF78607B681B681B6823F005027B6807
:102C60001B6842F004021A60FFF74CFDF86017E0A1
:102C7000FFF748FD0246FB68D31AB3F57A7F0FD9F8
:102C80007B68DB6B43F020027B68DA637B6803229E
:102C900083F839207B68002283F83820032317E06B
:102CA0007B681B681B6803F00103002BE0D17B6885
:102CB0001B681A687B681B6822F40C521A607B68D8
:102CC000012283F839207B68002283F83820002312
:102CD00018461037BD4680BD80B584B000AF78601F
:102CE00039607B681B682433FB607B681B681A684B
:102CF0007B681B6842F004021A603B68012B03D119
:102D00007B681B681C33FB60FFF7FCFCB86017E0B6
:102D1000FFF7F8FC0246BB68D31AB3F57A7F0FD9E8
:102D20007B68DB6B43F020027B68DA637B680322FD
:102D300083F839207B68002283F83820032316E0CB
:102D4000FB681B6803F02003002BE1D17B681B6844
:102D50001A687B681B6822F464521A607B6801223F
:102D600083F839207B68002283F838200023184636
:102D70001037BD4680BD80B584B000AF78607B68F9
:102D80001B685B68FB607B681B681B68BB60FB683B
:102D900003F00103002B26D0BB6803F48073002BE3
:102DA00021D07B681B681A687B681B6822F48072DC
:102DB0001A607B68DB6B43F001027B68DA637B6837
:102DC0001B6801229A607B68042283F839207B68A3
:102DD000002283F838207B685B69002B03D07B6876
:102DE0005B6978689847FB6803F02003002B26D0C6
:102DF000BB6803F40053002B21D07B681B681A6862
:102E00007B681B6822F400521A607B681B682022D2
:102E10009A607B68DB6B43F002027B68DA637B6855
:102E2000042283F839207B68002283F838207B68ED
:102E30005B69002B03D07B685B6978689847FB6807
:102E400003F00803002B26D0BB6803F40063002BBB
:102E500021D07B681B681A687B681B6822F40062BB
:102E60001A607B681B6808229A607B68DB6B43F002
:102E700004027B68DA637B68042283F839207B686C
:102E8000002283F838207B685B69002B03D07B68C5
:102E90005B6978689847FB6803F00403002B13D044
:102EA000BB6803F48063002B0ED07B681B681A6834
:102EB0007B681B6822F480621A607B681B680422AE
:102EC0009A60786800F053F8FB6803F00203002B67
:102ED00024D0BB6803F40073002B1FD07B681B68F1
:102EE0001A687B681B6822F400721A607B681B6892
:102EF00002229A607B68DA6B7B68DA637B68012266
:102F000083F839207B68002283F838207B681B69AE
:102F1000002B03D07B681B6978689847FB6803F037
:102F20001003002B1FD0BB6803F48053002B1AD072
:102F30007B681B681A687B681B6822F480521A60E1
:102F40007B681B6810229A607B68DA6B7B68DA63A7
:102F50007B68012283F839207B68002283F83820BF
:102F6000786800F00EF800BF1037BD4680BD80B411
:102F700083B000AF786000BF0C37BD465DF8047BBE
:102F8000704780B483B000AF786000BF0C37BD4697
:102F90005DF8047B7047000080B487B000AF7860B4
:102FA00039607B685B68B3F5403F7B6893F83830E5
:102FB000012B01D1022379E07B68012283F83820BC
:102FC0007B68022283F839203B681B0118337A683A
:102FD00013443B613B695A683B699B681B0413437C
:102FE0007B61354BFB603B695B680A2B03D03B6917
:102FF0005B68092B07D13B69DB6803F07F437A6983
:1030000013437B6105E03B69DB681B067A69134368
:103010007B613B68002B20D17B681B685A6AFB6888
:10302000DB4302EA03017B681B687A690A435A6240
:103030007B681B683A6912689A613B695B680A2B76
:1030400003D03B695B68092B27D13B69DA687B6851
:103050001B6822F07F429A621FE07B681B68DA6976
:10306000FB68DB4302EA03017B681B687A690A4359
:10307000DA617B681B683A6912681A613B695B68B0
:103080000A2B03D03B695B68092B06D13B69DA68E0
:103090007B681B6822F07F421A627B68012283F8FA
:1030A00039207B68002283F83820002318461C371B
:1030B000BD465DF8047B70470F0003FF80B48BB002
:1030C00000AFF860B9607A603B60FB681B685B6CBE
:1030D00003F040413B681A043B6B1A43FB681B68D2
:1030E0000A435A64FB681B687A68DA63FB685B68AA
:1030F000B3F5403F74D1BB6803F07F433B62BB68CC
:1031000003F47F03FB61BB6803F47F43BB61BB68CF
:10311000DBB27B61FB689B68002B08D1BA69FB6955
:103120001A433B6A13437A6913437B6253E0FB689B
:103130009B68012B06D1BA69FB6913437A69134373
:103140007B6248E0FB689B68022B11D1FB69DB0CBA
:10315000FB61BB699B0ABB617B69DB087B61BB6967
:103160005A01FB69DB0213437A6913437B6232E045
:10317000FB689B68032B17D13B6ADB0F3B62FB6943
:10318000DB0CFB61BB69DB0ABB617B69DB087B6134
:10319000BB695A01FB699B021A433B6ADB03134379
:1031A0007A6913437B6216E03B6A1B0F3B62FB6943
:1031B0001B0DFB61BB691B0BBB617B691B097B6141
:1031C000BB691A01FB691B021A433B6A1B031343C9
:1031D0007A6913437B62FB681B687A6A9A6303E02F
:1031E000FB681B68BA68DA6000BF2C37BD465DF823
:1031F000047B704780B489B000AF786039600023E9
:103200007B6100233B610023BB610023FB6177E10D
:103210000122FB6902FA03F37B613B681B687A6950
:1032200013403B613A697B699A4240F066813B6892
:103230005B68022B03D03B685B68122B23D1FB69D0
:10324000DA087B68083253F82230BB61FB6903F06F
:1032500007039B000F2202FA03F3DB43BA69134012
:10326000BB613B681A69FB6903F007039B0002FA24
:1032700003F3BA691343BB61FB69DA087B68083260
:10328000B96943F822107B681B68BB61FB695B006E
:10329000032202FA03F3DB43BA691340BB613B68C4
:1032A0005B6803F00302FB695B0002FA03F3BA698F
:1032B0001343BB617B68BA691A603B685B68012B8A
:1032C0000BD03B685B68022B07D03B685B68112B17
:1032D00003D03B685B68122B30D17B689B68BB6175
:1032E000FB695B00032202FA03F3DB43BA69134074
:1032F000BB613B68DA68FB695B0002FA03F3BA69F9
:103300001343BB617B68BA699A607B685B68BB6189
:103310000122FB6902FA03F3DB43BA691340BB6184
:103320003B685B681B0903F00102FB6902FA03F3C7
:10333000BA691343BB617B68BA695A607B68DB6812
:10334000BB61FB695B00032202FA03F3DB43BA694A
:103350001340BB613B689A68FB695B0002FA03F3A8
:10336000BA691343BB617B68BA69DA603B685B6822
:1033700003F08053002B00F0C0800023FB60654BFE
:103380005B6C644A43F480435364624B5B6C03F4AC
:103390008043FB60FB68604AFB699B08023352F87C
:1033A0002330BB61FB6903F003039B000F2202FA89
:1033B00003F3DB43BA691340BB617B68574A93420E
:1033C00037D07B68564A934231D07B68554A934246
:1033D0002BD07B68544A934225D07B68534A934252
:1033E0001FD07B68524A934219D07B68514A93425E
:1033F00013D07B68504A93420DD07B684F4A93426A
:1034000007D07B684E4A934201D1092312E00A2378
:1034100010E008230EE007230CE006230AE0052352
:1034200008E0042306E0032304E0022302E0012372
:1034300000E00023FA6902F0030292009340BA69A7
:103440001343BB613449FB699B080233BA6941F8F5
:1034500023203C4B1B68BB613B69DB43BA691340CB
:10346000BB613B685B6803F48033002B03D0BA690F
:103470003B691343BB61334ABB691360314B5B68E3
:10348000BB613B69DB43BA691340BB613B685B6866
:1034900003F40033002B03D0BA693B691343BB61CB
:1034A000284ABB695360274B9B68BB613B69DB4380
:1034B000BA691340BB613B685B6803F48013002B5F
:1034C00003D0BA693B691343BB611E4ABB69936071
:1034D0001C4BDB68BB613B69DB43BA691340BB61D2
:1034E0003B685B6803F40013002B03D0BA693B69A7
:1034F0001343BB61134ABB69D360FB690133FB61B2
:10350000FB690F2B7FF684AE00BF2437BD465DF804
:10351000047B704700380240003801400000024040
:103520000004024000080240000C0240001002406B
:103530000014024000180240001C0240002002401B
:1035400000240240003C014080B487B000AF7860A6
:10355000396000233B610023FB600023BB60002334
:103560007B61D9E001227B6902FA03F33B613A688F
:103570003B691340FB60FA683B699A4240F0C9809E
:103580006A4A7B699B08023352F82330BB607B692F
:1035900003F003039B000F2202FA03F3BA681340FF
:1035A000BB607B68624A934237D07B68614A934232
:1035B00031D07B68604A93422BD07B685F4A93424C
:1035C00025D07B685E4A93421FD07B685D4A934258
:1035D00019D07B685C4A934213D07B685B4A934264
:1035E0000DD07B685A4A934207D07B68594A934270
:1035F00001D1092312E00A2310E008230EE007237B
:103600000CE006230AE0052308E0042306E0032378
:1036100004E0022302E0012300E000237A6902F0C3
:10362000030292009340BA689A4232D17B6903F058
:1036300003039B000F2202FA03F3BB603B4A7B6942
:103640009B08023352F82310BB68DA4337487B6982
:103650009B080A40023340F823203F4B1A68FB685E
:10366000DB433D4913400B603B4B5A68FB68DB432F
:10367000394913404B60384B9A68FB68DB43364945
:1036800013408B60344BDA68FB68DB4332491340EC
:10369000CB607B681A687B695B00032101FA03F346
:1036A000DB431A407B681A607B69DA087B68083262
:1036B00053F822107B6903F007039B000F2202FAE4
:1036C00003F3DB437A69D20819407B68083243F878
:1036D00022107B689A687B695B00032101FA03F37F
:1036E000DB431A407B689A607B685A6801217B69DA
:1036F00001FA03F3DB431A407B685A607B68DA689F
:103700007B695B00032101FA03F3DB431A407B680A
:10371000DA607B6901337B617B690F2B7FF622AF17
:1037200000BF1C37BD465DF8047B70470038014080
:10373000000002400004024000080240000C024069
:10374000001002400014024000180240001C024019
:103750000020024000240240003C014080B483B0BD
:1037600000AF78600B467B8013467B707B78002B24
:1037700003D07A887B689A6103E07B881A047B68AF
:103780009A6100BF0C37BD465DF8047B704780B47A
:1037900083B000AF78600B467B807B685A697B887A
:1037A0001A407B889A4204D17B881A047B689A610C
:1037B00002E07A887B689A6100BF0C37BD465DF8ED
:1037C000047B7047F0B58FB00AAF78607B68002B40
:1037D00001D1012354E07B681B68FB607B6893F890
:1037E000B932DBB2002B06D17B68002283F8B82205
:1037F000786814F033F87B68032283F8B922FB68F9
:10380000DB6B03F48073002B02D17B6800221A610A
:103810007B681B68184605F00AFD7B681B683B60E7
:103820007E686D4606F110040FCC0FC50FCC0FC596
:1038300094E8030085E80300331D0ECB386805F0DB
:1038400084FC7B681B680121184605F001FD7B683C
:103850001B683B607E686D4606F110040FCC0FC5F7
:103860000FCC0FC594E8030085E80300331D0ECB91
:10387000386805F013FE7B68012283F8B922002323
:1038800018461437BD46F0BD90B589B004AF7860D6
:10389000084611461A460346FB700B46BB7013469A
:1038A0007B707B6893F8B832012B01D102237FE053
:1038B0007B68012283F8B822FA78796813469B0066
:1038C0001344DB000B443D3300221A70FA78796808
:1038D00013469B001344DB000B4438337A781A708C
:1038E000FA78796813469B001344DB000B4440339D
:1038F0003A8D1A80FA78796813469B001344DB00EE
:103900000B443933FA781A70FA78796813469B00B9
:103910001344DB000B443F3397F824201A70FA78E5
:10392000BB7803F07F03D8B2796813469B00134439
:10393000DB000B443A3302461A7097F90230002B31
:103940000ADAFA78796813469B001344DB000B44CB
:103950003B3301221A7009E0FA78796813469B001C
:103960001344DB000B443B3300221A70FA78796869
:1039700013469B001344DB000B443C3397F8202094
:103980001A707B6818687C78BA78F9783B8D029356
:1039900097F82430019397F820300093234605F0E0
:1039A000FFFE0346FB737B68002283F8B822FB7B93
:1039B00018461437BD4690BD80B584B000AF78601E
:1039C0000B46FB700023FB737B6893F8B832012B26
:1039D00001D102230FE07B68012283F8B8227B68C3
:1039E0001B68FA781146184606F039F97B68002200
:1039F00083F8B822FB7B18461037BD4680BD000017
:103A000080B582B000AF7860084611461A4603467A
:103A1000FB700B46BB7013467B70FA7879681346CF
:103A20009B001344DB000B443B33BA781A70FA78DE
:103A3000796813469B001344DB000B443F337A78CC
:103A40001A703B7C002B0AD1FA78796813469B00E8
:103A50001344DB000B44423303221A7009E0FA7866
:103A6000796813469B001344DB000B444233022267
:103A70001A707B78032B00F2D68001A252F823F053
:103A8000913A0008113C0008FD3A0008873B000805
:103A90003B7C012B40F0C980BB78002B40F0C580F7
:103AA0003B8B002B09D1FA78796813469B001344AD
:103AB000DB000B44513301221A70FA7879681346FF
:103AC0009B001344DB000B4451331B78002B0AD1BD
:103AD000FA78796813469B001344DB000B444233A9
:103AE00000221A70A1E0FA78796813469B0013440B
:103AF000DB000B44423302221A7096E0BB78002BA5
:103B000020D1FA78796813469B001344DB000B44FC
:103B100051331B78002B0AD1FA78796813469B0041
:103B20001344DB000B44423300221A707EE0FA7823
:103B3000796813469B001344DB000B444233022296
:103B40001A7073E0FA78796813469B001344DB001F
:103B50000B4450331B78002B0AD1FA78796813464E
:103B60009B001344DB000B44423300221A705DE0DB
:103B7000FA78796813469B001344DB000B44423308
:103B800002221A7052E0BB78002B20D1FA787968B3
:103B900013469B001344DB000B4451331B78002B6E
:103BA0000AD1FA78796813469B001344DB000B4472
:103BB000423300221A7039E0FA78796813469B0084
:103BC0001344DB000B44423302221A702EE0FA78D1
:103BD000796813469B001344DB000B4450331B7879
:103BE000002B0AD1FA78796813469B001344DB0056
:103BF0000B44423300221A7018E0FA7879681346B1
:103C00009B001344DB000B44423302221A700DE088
:103C1000FA78796813469B001344DB000B44423367
:103C200000221A7002E000BF00E000BFFA78796855
:103C300013469B001344DB000B4444337A691A603B
:103C4000FA78398B786813469B001344DB000344F1
:103C500048331960FA78796813469B001344DB00F7
:103C60000B445C3300221A70FA78796813469B0083
:103C70001344DB000B444C3300221A60FA78796855
:103C800013469B001344DB000B443933FA781A7057
:103C9000FA78796813469B001344DB000B445D33CC
:103CA00000221A707B681868FA7813469B00134448
:103CB000DB0038337A68D1187B681B69DBB21A469F
:103CC00005F078FE034618460837BD4680BD00BFA4
:103CD00080B586B000AF78607B681B683B613B694C
:103CE000FB607B681B68184605F095FB0346012BBB
:103CF00040F0F1807B681B68184605F079FB0346AD
:103D0000002B00F0E7807B681B68184605F070FB0D
:103D1000034603F40013B3F5001F04D17B681B684E
:103D20004FF400125A617B681B68184605F060FB6F
:103D3000034603F48013B3F5801F04D17B681B682E
:103D40004FF480125A617B681B68184605F050FBDF
:103D5000034603F08063B3F1806F04D17B681B6876
:103D60004FF080625A617B681B68184605F040FB83
:103D7000034603F00203022B03D17B681B68022277
:103D80005A617B681B68184605F032FB034603F056
:103D90000053B3F1005F17D1FB6803F588631B681C
:103DA000FA6802F5886223F02E031360786813F036
:103DB000CFFD7B681B680121184605F02BFC7B6852
:103DC0001B684FF000525A617B681B68184605F06B
:103DD0000FFB034603F08073B3F1807F02D1786854
:103DE00001F0C8F87B681B68184605F001FB034624
:103DF00003F00803082B06D1786813F08DFD7B686B
:103E00001B6808225A617B681B68184605F0F0FAA7
:103E1000034603F00073B3F1007F38D17B681B6861
:103E2000184605F00BFFB86000237B6125E07B6935
:103E300003F00F03BA6822FA03F303F00103002B27
:103E400018D07B695A01FB68134403F5A0631B6813
:103E500003F40043B3F5004F06D17B69DBB219468A
:103E6000786800F0CFF805E07B69DBB21946786826
:103E700000F05FFC7B6901337B617B689B687A693A
:103E80009A42D4D37B681B684FF000725A617B68FA
:103E90001B68184605F0ACFA034603F01003102B1C
:103EA00001D1012300E00023002B14D07B681B68A4
:103EB0009A697B681B6822F010029A61786800F0AA
:103EC000ADFF7B681B689A697B681B6842F0100233
:103ED0009A6100E000BF1837BD4680BD80B582B052
:103EE00000AF78607B6893F8B832012B01D10223D0
:103EF00013E07B68012283F8B8227B681B681846B0
:103F000005F084F97B681B680121184605F0E6FB83
:103F10007B68002283F8B822002318460837BD4684
:103F200080BD80B582B000AF78607B6893F8B8320E
:103F3000012B01D102230DE07B68012283F8B82216
:103F40007B681B68184605F0C5FF7B68002283F874
:103F5000B822002318460837BD4680BD80B582B020
:103F600000AF78607B681B68184605F08DFB034640
:103F700018460837BD4680BD80B483B000AF786076
:103F80000B46FB70FA78796813469B001344DB00FC
:103F90000B445C331B7818460C37BD465DF8047B38
:103FA000704780B483B000AF78600B46FB70FA783E
:103FB000796813469B001344DB000B444C331B68A9
:103FC00018460C37BD465DF8047B704780B582B05B
:103FD00000AF78607B681B68184605F0CFFB03468E
:103FE00018460837BD4680BD80B582B000AF786006
:103FF0007B681B68184605F0AAFB0346184608377D
:10400000BD4680BD80B586B000AF78600B46FB70C2
:104010007B681B687B617B693B61FB78FB60FB68AD
:104020005A013B69134403F5A0639B6803F0040342
:10403000042B19D1FB685A013B69134403F5A063B3
:104040001A4604239360FB685A013B69134403F545
:10405000A063DB68FA6851013A690A4402F5A0627C
:1040600043F00203D36095E0FB685A013B691344B7
:1040700003F5A0639B6803F02003202B09D1FB68A4
:104080005A013B69134403F5A0631A462023936049
:1040900080E0FB685A013B69134403F5A0639B6809
:1040A00003F00803082B34D1FB685A013B69134421
:1040B00003F5A063DB68FA6851013A690A4402F526
:1040C000A06243F00203D3607968FA6813469B004C
:1040D0001344DB000B445D3305221A70FB685A0160
:1040E0003B69134403F5A0631A4610239360FB68F1
:1040F0005A013B69134403F5A0631A4608239360F1
:104100007B681B68FA68D2B21146184605F0A7FD15
:1041100040E0FB685A013B69134403F5A0639B68C8
:1041200003F48063B3F5806F34D1FB685A013B69B7
:10413000134403F5A063DB68FA6851013A690A4445
:1041400002F5A06243F00203D3607B681B68FA6843
:10415000D2B21146184605F082FDFB685A013B6950
:10416000134403F5A0631A46102393607968FA6834
:1041700013469B001344DB000B445D3308221A7086
:10418000FB685A013B69134403F5A0631A464FF4D8
:1041900080639360FB685A013B69134403F5A06395
:1041A0009B6803F40073B3F5007F22D1FB685A01CA
:1041B0003B69134403F5A063DB68FA6851013A696F
:1041C0000A4402F5A06243F00203D3607B681B68D7
:1041D000FA68D2B21146184605F041FDFB685A0153
:1041E0003B69134403F5A0631A464FF400739360D0
:1041F0009BE2FB685A013B69134403F5A0639B688B
:1042000003F00103012B40F0C1807B681B69002B88
:104210001BD07968FA6813469B001344DB000B44FB
:1042200048331A68FB6859013B690B4403F5A063E6
:104230001B69C3F31203D11A7868FA6813469B000E
:104240001344DB0003444C3319607968FA68134661
:104250009B001344DB000B445D3301221A70796824
:10426000FA6813469B001344DB000B4458330022CA
:104270001A60FB685A013B69134403F5A0631A46B0
:10428000012393607968FA6813469B001344DB00AE
:104290000B443F331B78002B0AD07968FA68134629
:1042A0009B001344DB000B443F331B78022B21D1CE
:1042B000FB685A013B69134403F5A063DB68FA68A5
:1042C00051013A690A4402F5A06243F00203D36047
:1042D0007B681B68FA68D2B21146184605F0BFFC2D
:1042E000FB685A013B69134403F5A0631A46102387
:1042F000936034E07968FA6813469B001344DB004E
:104300000B443F331B78032B29D1FB685A013B69CF
:10431000134403F5A0631B68FA6851013A690A4423
:1043200002F5A06243F0005313607968FA681346FF
:104330009B001344DB000B445C3301221A70FB68C2
:10434000D8B27968FA6813469B001344DB000B442B
:104350005C331B781A460146786813F007FB7968CE
:10436000FA6813469B001344DB000B4450331B7860
:1043700083F00103D8B27968FA6813469B001344AE
:10438000DB000B44503302461A70CEE1FB685A0141
:104390003B69134403F5A0639B6803F00203022BFF
:1043A00040F0F180FB685A013B69134403F5A063B8
:1043B000DB68FA6851013A690A4402F5A06223F009
:1043C0000203D3607968FA6813469B001344DB004C
:1043D0000B445D331B78012B0AD17968FA681346C8
:1043E0009B001344DB000B445C3301221A70B0E0E5
:1043F0007968FA6813469B001344DB000B445D3375
:104400001B78052B0AD17968FA6813469B00134480
:10441000DB000B445C3305221A709AE07968FA6875
:1044200013469B001344DB000B445D331B78062BC3
:104430000AD07968FA6813469B001344DB000B44EA
:104440005D331B78082B56D17968FA6813469B00B8
:104450001344DB000B4458331B68591C7868FA6816
:1044600013469B001344DB000344583319607968FA
:10447000FA6813469B001344DB000B4458331B6857
:10448000032B14D97968FA6813469B001344DB00A8
:104490000B44583300221A607968FA6813469B006F
:1044A0001344DB000B445C3304221A7009E0796882
:1044B000FA6813469B001344DB000B445C33022272
:1044C0001A70FB685A013B69134403F5A0631B682B
:1044D000BB60BB6823F08043BB60BB6843F0004314
:1044E000BB60FB685A013B69134403F5A0631A469D
:1044F000BB6813602DE07968FA6813469B0013448B
:10450000DB000B445D331B78032B22D17968FA68FA
:1045100013469B001344DB000B445C3302221A70E9
:10452000FB685A013B69134403F5A0631B68BB6039
:10453000BB6823F08043BB60BB6843F00043BB60B3
:10454000FB685A013B69134403F5A0631A46BB6834
:104550001360FB685A013B69134403F5A0631A46D4
:1045600002239360FB68D8B27968FA6813469B000F
:104570001344DB000B445C331B781A460146786811
:1045800013F0F4F9D1E0FB685A013B69134403F5D9
:10459000A0639B6803F08003802B3ED1FB685A0127
:1045A0003B69134403F5A063DB68FA6851013A697B
:1045B0000A4402F5A06243F00203D3607968FA6806
:1045C00013469B001344DB000B4458331B68591CF3
:1045D0007868FA6813469B001344DB0003445833A1
:1045E00019607968FA6813469B001344DB000B449A
:1045F0005D3306221A707B681B68FA68D2B21146D6
:10460000184605F02CFBFB685A013B69134403F57F
:10461000A0631A468023936087E0FB685A013B69D8
:10462000134403F5A0639B6803F01003102B7CD1A7
:104630007968FA6813469B001344DB000B443F3350
:104640001B78032B22D17968FA6813469B00134428
:10465000DB000B44583300221A60FB685A013B69A7
:10466000134403F5A063DB68FA6851013A690A4410
:1046700002F5A06243F00203D3607B681B68FA680E
:10468000D2B21146184605F0EAFA45E07968FA68B0
:1046900013469B001344DB000B443F331B78002B75
:1046A0000AD07968FA6813469B001344DB000B4478
:1046B0003F331B78022B2FD17968FA6813469B0091
:1046C0001344DB000B44583300221A607B681B69DB
:1046D000002B21D17968FA6813469B001344DB0054
:1046E0000B445D3303221A70FB685A013B69134483
:1046F00003F5A063DB68FA6851013A690A4402F5E0
:10470000A06243F00203D3607B681B68FA68D2B2F0
:104710001146184605F0A3FAFB685A013B69134499
:1047200003F5A0631A461023936000BF1837BD46F7
:1047300080BD80B586B000AF78600B46FB707B68AB
:104740001B687B617B693B61FB78FB60FB685A01FE
:104750003B69134403F5A0639B6803F00403042B37
:1047600019D1FB685A013B69134403F5A0631A464B
:1047700004239360FB685A013B69134403F5A0636B
:10478000DB68FA6851013A690A4402F5A06243F015
:104790000203D3603EE3FB685A013B69134403F50F
:1047A000A0639B6803F02003202B41D1FB685A01D2
:1047B0003B69134403F5A0631A462023936079688C
:1047C000FA6813469B001344DB000B443D331B780F
:1047D000012B40F01F837968FA6813469B0013444D
:1047E000DB000B443D3300221A707968FA681346E7
:1047F0009B001344DB000B445C3302221A70FB68FD
:104800005A013B69134403F5A063DB68FA68510160
:104810003A690A4402F5A06243F00203D3607B6860
:104820001B68FA68D2B21146184605F018FAF1E290
:10483000FB685A013B69134403F5A0639B6803F0CE
:104840004003402B3FD17968FA6813469B0013441C
:10485000DB000B445D3304221A707968FA68134652
:104860009B001344DB000B443D3301221A7079682E
:10487000FA6813469B001344DB000B4458330022B4
:104880001A60FB685A013B69134403F5A063DB68B7
:10489000FA6851013A690A4402F5A06243F0020342
:1048A000D3607B681B68FA68D2B21146184605F0DF
:1048B000D6F9FB685A013B69134403F5A0631A4615
:1048C00040239360A6E2FB685A013B69134403F559
:1048D000A0639B6803F40073B3F5007F22D1FB68EB
:1048E0005A013B69134403F5A063DB68FA68510180
:1048F0003A690A4402F5A06243F00203D3607B6880
:104900001B68FA68D2B21146184605F0A8F9FB6890
:104910005A013B69134403F5A0631A464FF4007330
:10492000936077E2FB685A013B69134403F5A06387
:104930009B6803F00103012B35D17968FA681346AF
:104940009B001344DB000B44583300221A60FB68C1
:104950005A013B69134403F5A063DB68FA6851010F
:104960003A690A4402F5A06243F00203D3607B680F
:104970001B68FA68D2B21146184605F070F9FB6858
:104980005A013B69134403F5A0631A46012393605F
:104990007968FA6813469B001344DB000B445D33CF
:1049A00001221A7036E2FB685A013B69134403F591
:1049B000A0639B6803F00803082B2BD1FB685A0106
:1049C0003B69134403F5A0631A4608239360FB6810
:1049D0005A013B69134403F5A063DB68FA6851018F
:1049E0003A690A4402F5A06243F00203D3607B688F
:1049F0001B68FA68D2B21146184605F030F979689A
:104A0000FA6813469B001344DB000B445D33052218
:104A10001A70FFE1FB685A013B69134403F5A06378
:104A20009B6803F01003102B55D17968FA68134680
:104A30009B001344DB000B44583300221A60796852
:104A4000FA6813469B001344DB000B445D330322DA
:104A50001A707968FA6813469B001344DB000B4414
:104A60003D331B78002B14D17968FA6813469B00FC
:104A70001344DB000B443C331B78002B09D17968CD
:104A8000FA6813469B001344DB000B443D330122BC
:104A90001A70FB685A013B69134403F5A063DB6895
:104AA000FA6851013A690A4402F5A06243F0020330
:104AB000D3607B681B68FA68D2B21146184605F0CD
:104AC000CEF8FB685A013B69134403F5A0631A460C
:104AD000102393609EE1FB685A013B69134403F580
:104AE000A0639B6803F08003802B2BD1FB685A01E5
:104AF0003B69134403F5A063DB68FA6851013A6926
:104B00000A4402F5A06243F00203D3607B681B688D
:104B1000FA68D2B21146184605F0A1F87968FA6829
:104B200013469B001344DB000B445D3306221A70CE
:104B3000FB685A013B69134403F5A0631A468023BE
:104B4000936067E1FB685A013B69134403F5A06376
:104B50009B6803F48063B3F5806F35D1FB685A011D
:104B60003B69134403F5A063DB68FA6851013A69B5
:104B70000A4402F5A06243F00203D3607B681B681D
:104B8000FA68D2B21146184605F069F8FB685A0176
:104B90003B69134403F5A0631A4610239360FB6836
:104BA0005A013B69134403F5A0631A464FF480632E
:104BB00093607968FA6813469B001344DB000B444A
:104BC0005D3308221A7025E1FB685A013B691344E2
:104BD00003F5A0639B6803F00203022B40F01A81E7
:104BE000FB685A013B69134403F5A063DB68FA686C
:104BF00051013A690A4402F5A06223F00203D3602E
:104C00007968FA6813469B001344DB000B445D335C
:104C10001B78012B37D17968FA6813469B0013443F
:104C2000DB000B445C3301221A707968FA68134682
:104C30009B001344DB000B443F331B78022B0BD04B
:104C40007968FA6813469B001344DB000B443F333A
:104C50001B78032B40F0C5807968FA6813469B00E7
:104C60001344DB000B4451331B7883F00103D8B2AB
:104C70007968FA6813469B001344DB000B445133F8
:104C800002461A70ADE07968FA6813469B00134437
:104C9000DB000B445D331B78032B0AD17968FA687B
:104CA00013469B001344DB000B445C3302221A7052
:104CB00097E07968FA6813469B001344DB000B44C5
:104CC0005D331B78042B0AD17968FA6813469B0080
:104CD0001344DB000B445C3302221A7081E07968D4
:104CE000FA6813469B001344DB000B445D331B78CA
:104CF000052B0AD17968FA6813469B001344DB0040
:104D00000B445C3305221A706BE07968FA6813462D
:104D10009B001344DB000B445D331B78062B0AD049
:104D20007968FA6813469B001344DB000B445D333B
:104D30001B78082B55D17968FA6813469B001344F9
:104D4000DB000B4458331B68591C7868FA6813461B
:104D50009B001344DB000344583319607968FA68F8
:104D600013469B001344DB000B4458331B68032B92
:104D700014D97968FA6813469B001344DB000B448E
:104D8000583300221A607968FA6813469B0013446E
:104D9000DB000B445C3304221A7009E07968FA687E
:104DA00013469B001344DB000B445C3302221A7051
:104DB000FB685A013B69134403F5A0631B68BB60A1
:104DC000BB6823F08043BB60BB6843F00043BB601B
:104DD000FB685A013B69134403F5A0631A46BB689C
:104DE0001360FB685A013B69134403F5A0631A463C
:104DF00002239360FB68D8B27968FA6813469B0077
:104E00001344DB000B445C331B781A460146786878
:104E100012F0ACFD00BF1837BD4680BD80B58AB02A
:104E200000AF78607B681B687B627B6A3B627B6853
:104E30001B681B6AFB61FB6903F00F03BB61FB6925
:104E40005B0C03F00F037B61FB691B09C3F30A03CF
:104E50003B617B69022B03D0052B00F0828083E04D
:104E60003B69002B7FD07968BA6913469B001344D5
:104E7000DB000B4444331B68002B74D07B6818683C
:104E80007968BA6913469B001344DB000B44443332
:104E90001B683A6992B2194604F081FA7968BA69D6
:104EA00013469B001344DB000B4444331A683B69F0
:104EB000D1187868BA6913469B001344DB00034499
:104EC000443319607968BA6913469B001344DB00C8
:104ED0000B444C331A683B69D1187868BA69134699
:104EE0009B001344DB0003444C331960BB695A0137
:104EF0003B6A134403F5A0631A691D4B1340002B52
:104F000031D0BB695A013B6A134403F5A0631B68A7
:104F1000FB60FB6823F08043FB60FB6843F00043C9
:104F2000FB60BB695A013B6A134403F5A0631A4650
:104F3000FB6813607968BA6913469B001344DB0071
:104F40000B4450331B7883F00103D8B27968BA69F7
:104F500013469B001344DB000B44503302461A7087
:104F600001E000BF00E000BF00BF2837BD4680BDA4
:104F70000000F81F80B586B000AF78607B681B68C2
:104F80007B617B693B613B6903F588631B68FB6060
:104F90003B6903F588631B68BB60BB6823F02E0385
:104FA000BB60FB6803F00203022B13D1FB6803F024
:104FB0000103012B0AD17B681B689A697B681B6817
:104FC00022F000529A61786812F0B4FCBB6843F09A
:104FD0000203BB60FB6803F00803082B47D1BB68E2
:104FE00043F00803BB60FB6803F00403042B29D1E2
:104FF0007B689B69022B13D1FB6803F4C023B3F5D4
:10500000802F06D17B681B680221184604F002FB42
:1050100011E07B681B680121184604F0FBFA0AE0E6
:105020007B68DB68012B06D13B6903F580631A4678
:105030004EF660235360786812F0AAFC786812F08C
:1050400079FC14E0786812F0B1FC3B6903F58863E1
:105050001B683A6902F5886223F02E0313607B68AF
:105060001B689A697B681B6842F000529A61FB6872
:1050700003F02003202B03D1BB6843F02003BB6067
:105080003B6903F588631A46BB68136000BF183795
:10509000BD4680BD80B584B000AF78607B68002BD2
:1050A00001D101230FE17B6893F83D30DBB2002B87
:1050B00006D17B68002283F83C207868FBF728FE45
:1050C0007B68242283F83D207B681B681A687B6814
:1050D0001B6822F001021A6002F050F8F8607B6849
:1050E0005B687B4A934207D8FB687A4A934294BF35
:1050F00001230023DBB206E0FB68774A934294BFAA
:1051000001230023DBB2002B01D00123DBE0FB688D
:10511000724AA2FB03239B0CBB607B681B685B6825
:1051200023F03F017B681B68BA680A435A607B68BA
:105130001B681B6A23F03F017B685B68644A9342EB
:1051400002D8BB68013309E0BB684FF4967202FBDA
:1051500003F3634AA2FB03239B0901337A681268B5
:105160000B4313627B681B68DB6923F44F4222F018
:10517000FF027B685B6856498B420DD8FB68591E5D
:105180007B685B685B00B1FBF3F30133C3F30B0394
:10519000042B38BF04234FE07B689B68002B11D1A0
:1051A000FB68581E7B6859680B465B000B44B0FBDC
:1051B000F3F30133C3F30B03002B0CBF01230023D4
:1051C000DBB212E0FB68581E7B6859680B469B00F7
:1051D0000B4499000B44B0FBF3F30133C3F30B030F
:1051E000002B0CBF01230023DBB2002B01D00123D5
:1051F00022E07B689B68002B0ED1FB68581E7B6801
:1052000059680B465B000B44B0FBF3F30133C3F367
:105210000B0343F400430FE0FB68581E7B6859689A
:105220000B469B000B4499000B44B0FBF3F3013396
:10523000C3F30B0343F44043796809681343CB611C
:105240007B681B681B6823F0C0017B68DA697B6898
:105250001B6A1A437B681B680A431A607B681B68D9
:105260009B6823F4034323F0FF037A6811697A688B
:10527000D26811437A6812680B4393607B681B689D
:10528000DB6823F0FF017B685A697B689B691A43DE
:105290007B681B680A43DA607B681B681A687B6856
:1052A0001B6842F001021A607B6800221A647B6866
:1052B000202283F83D207B6800221A637B6800224D
:1052C00083F83E20002318461037BD4680BD00BF3E
:1052D000A08601007F841E00FF083D0083DE1B4383
:1052E000D34D621080B582B000AF78607B68002B30
:1052F00001D1012321E07B68242283F83D207B68D3
:105300001B681A687B681B6822F001021A607868C3
:10531000FBF768FD7B6800221A647B68002283F833
:105320003D207B6800221A637B68002283F83E20C0
:105330007B68002283F83C20002318460837BD46CE
:1053400080BD000080B588B002AFF8600846114605
:105350001A4603467B810B463B811346FB80FDF7D3
:10536000D1F97861FB6893F83D30DBB2202B40F037
:10537000D9807B690093192301226D49F86800F0F8
:1053800069FC0346002B01D00223CCE0FB6893F8B4
:105390003C30012B01D10223C5E0FB68012283F8D8
:1053A0003C20FB681B681B6803F00103012B07D03E
:1053B000FB681B681A68FB681B6842F001021A60F0
:1053C000FB681B681A68FB681B6822F400621A609D
:1053D000FB68212283F83D20FB68402283F83E20B1
:1053E000FB6800221A64FB683A6A5A62FB68BA8C4E
:1053F0005A85FB685B8D9AB2FB681A85FB684D4A3B
:10540000DA62F8883A8979897B690193BB6A0093EB
:105410000346F86800F0C4FA0346002B52D001237B
:1054200081E07A69B96AF86800F0EAFC0346002B6B
:105430000DD0FB681B6C042B07D1FB681B681A6836
:10544000FB681B6842F400721A6001236BE0FB6882
:105450005B6A1A78FB681B681A61FB685B6A5A1CF6
:10546000FB685A62FB681B8D013B9AB2FB681A8588
:10547000FB685B8D9BB2013B9AB2FB685A85FB6867
:105480001B685B6903F00403042B1BD1FB681B8DB5
:10549000002B17D0FB685B6A1A78FB681B681A61DF
:1054A000FB685B6A5A1CFB685A62FB681B8D013BF8
:1054B0009AB2FB681A85FB685B8D9BB2013B9AB27E
:1054C000FB685A85FB681B8D002BAAD17A69B96AE3
:1054D000F86800F0D6FC0346002B0DD0FB681B6C6F
:1054E000042B07D1FB681B681A68FB681B6842F431
:1054F00000721A60012316E0FB681B681A68FB68DB
:105500001B6842F400721A60FB68202283F83D2079
:10551000FB68002283F83E20FB68002283F83C20D1
:10552000002300E0022318461837BD4680BD00BFA7
:10553000020010000000FFFF80B58CB002AFF860E1
:10554000084611461A4603467B810B463B811346AB
:10555000FB80FDF7D7F87862FB6893F83D30DBB24B
:10556000202B40F008827B6A0093192301227B499B
:10557000F86800F06FFB0346002B01D00223FBE12B
:10558000FB6893F83C30012B01D10223F4E1FB6866
:10559000012283F83C20FB681B681B6803F00103B1
:1055A000012B07D0FB681B681A68FB681B6842F078
:1055B00001021A60FB681B681A68FB681B6822F40A
:1055C00000621A60FB68222283F83D20FB684022BB
:1055D00083F83E20FB6800221A64FB683A6B5A622B
:1055E000FB68BA8E5A85FB685B8D9AB2FB681A8598
:1055F000FB685B4ADA62F8883A8979897B6A0193A9
:10560000BB6B00930346F86800F054FA0346002B86
:1056100001D00123B0E1FB681B8D002B13D10023C7
:105620003B62FB681B685B693B62FB681B689B69AC
:105630003B623B6AFB681B681A68FB681B6842F4A4
:1056400000721A6084E1FB681B8D012B1BD1FB6883
:105650001B681A68FB681B6822F480621A600023CA
:10566000FB61FB681B685B69FB61FB681B689B69EE
:10567000FB61FB69FB681B681A68FB681B6842F4E6
:1056800000721A6064E1FB681B8D022B1BD1FB6862
:105690001B681A68FB681B6822F480621A60FB684A
:1056A0001B681A68FB681B6842F400621A600023DA
:1056B000BB61FB681B685B69BB61FB681B689B691E
:1056C000BB61BB6944E100237B61FB681B685B69CC
:1056D0007B61FB681B689B697B617B6938E1FB68C8
:1056E0001B8D032B00F2F180FB681B8D012B23D156
:1056F0007A6AB96BF86800F005FC0346002B01D00C
:10570000012339E1FB681B681A69FB685B6AD2B246
:105710001A70FB685B6A5A1CFB685A62FB681B8D37
:10572000013B9AB2FB681A85FB685B8D9BB2013B1B
:105730009AB2FB685A850BE1FB681B8D022B4ED198
:105740007B6A0093BB6B00220649F86800F082FA7E
:105750000346002B08D001230EE100BF0200100019
:105760000000FFFF04000100FB681B681A68FB686B
:105770001B6842F400721A60FB681B681A69FB68B8
:105780005B6AD2B21A70FB685B6A5A1CFB685A6289
:10579000FB681B8D013B9AB2FB681A85FB685B8D29
:1057A0009BB2013B9AB2FB685A85FB681B681A6979
:1057B000FB685B6AD2B21A70FB685B6A5A1CFB68B2
:1057C0005A62FB681B8D013B9AB2FB681A85FB6825
:1057D0005B8D9BB2013B9AB2FB685A85B8E07B6A4D
:1057E0000093BB6B00226649F86800F033FA034669
:1057F000002B01D00123BFE0FB681B681A68FB681F
:105800001B6822F480621A60FB681B681A69FB68D7
:105810005B6AD2B21A70FB685B6A5A1CFB685A62F8
:10582000FB681B8D013B9AB2FB681A85FB685B8D98
:105830009BB2013B9AB2FB685A857B6A0093BB6BB3
:1058400000224F49F86800F005FA0346002B01D00A
:10585000012391E0FB681B681A68FB681B6842F42F
:1058600000721A60FB681B681A69FB685B6AD2B237
:105870001A70FB685B6A5A1CFB685A62FB681B8DD6
:10588000013B9AB2FB681A85FB685B8D9BB2013BBA
:105890009AB2FB685A85FB681B681A69FB685B6AE9
:1058A000D2B21A70FB685B6A5A1CFB685A62FB68CA
:1058B0001B8D013B9AB2FB681A85FB685B8D9BB21E
:1058C000013B9AB2FB685A8542E07A6AB96BF86884
:1058D00000F018FB0346002B01D001234CE0FB68CD
:1058E0001B681A69FB685B6AD2B21A70FB685B6A54
:1058F0005A1CFB685A62FB681B8D013B9AB2FB681D
:105900001A85FB685B8D9BB2013B9AB2FB685A8596
:10591000FB681B685B6903F00403042B18D1FB6868
:105920001B681A69FB685B6AD2B21A70FB685B6A13
:105930005A1CFB685A62FB681B8D013B9AB2FB68DC
:105940001A85FB685B8D9BB2013B9AB2FB685A8556
:10595000FB681B8D002B7FF4C2AEFB68202283F80E
:105960003D20FB68002283F83E20FB68002283F87C
:105970003C20002300E0022318462837BD4680BDA6
:105980000400010080B483B000AF78607B6893F8B6
:105990003D30DBB218460C37BD465DF8047B7047DE
:1059A00080B588B002AFF860084611461A46034633
:1059B0007B810B463B811346FB80FB681B681A68A2
:1059C000FB681B6842F480721A607B6A00933B6A32
:1059D00000224FF00111F86800F03CF90346002B5B
:1059E00001D001235FE07B89DBB21A46FB681B68AC
:1059F00002F0FE021A617B6A3A6A2D49F86800F0EB
:105A000080F90346002B01D001234CE000237B6189
:105A1000FB681B685B697B61FB681B689B697B613A
:105A20007B697A6A396AF86800F0EAF90346002B64
:105A30000DD0FB681B6C042B07D1FB681B681A6830
:105A4000FB681B6842F400721A6001232BE0FB889C
:105A5000012B05D13B89DAB2FB681B681A6121E092
:105A60003B891B0A9BB2DAB2FB681B681A617A6A2F
:105A7000396AF86800F0C4F90346002B0DD0FB68C2
:105A80001B6C042B07D1FB681B681A68FB681B683A
:105A900042F400721A60012305E03B89DAB2FB6828
:105AA0001B681A61002318461837BD4680BD00BF29
:105AB0000200010080B588B002AFF86008461146C8
:105AC0001A4603467B810B463B811346FB80FB68ED
:105AD0001B681A68FB681B6842F480621A60FB68E6
